:100000000C94C9020C9410030C9410030C9410036C
:100010000C9410030C9410030C9410030C94100314
:100020000C9410030C9410030C94C4190C948019B4
:100030000C94D11E0C9410030C9410030C94100318
:100040000C9410030C9410030C9410030C941003E4
:100050000C9410030C94AD1E0C9410030C9410031C
:100060000C9410030C9410030C9410030C941003C4
:100070000C9410030C9410030C9410030C941003B4
:100080000C9410030C9410030C9410030C941003A4
:100090000C9410030C9410030C9410030C94100394
:1000A0000C9410030C9410030C9410030501090226
:1000B000A10185020901A100050919012905150001
:1000C00025019505750181029501750381010501E1
:1000D000093009311581257F950275088106093897
:1000E0001581257F950175088106050C0A380215D2
:1000F00081257F950175088106C0C005010980A191
:1001000001850319012AB700150126B7009501756D
:10011000108100C0050C0901A101850419012AA064
:1001200002150126A002950175108100C005010984
:1001300006A1018505050719E029E71500250195A8
:1001400008750181020507190029EF1500250195A1
:10015000F0750181020508190129059505750191C0
:1001600002950175039101C00660FF0961A10109B3
:1001700062150026FF0095207508810209631500AD
:1001800026FF00952075089102C005010906A1010E
:10019000050719E029E71500250195087501810279
:1001A0009501750881010507190029FF150026FF33
:1001B0000095067508810005081901290595057542
:1001C000019102950175039101C05300540055003F
:1001D000560029001E001F002000210022002300DD
:1001E00024002500260027002D002E002A005F0095
:1001F0006000610057002B0014001A000800150071
:1002000017001C0018000C00120013002F00300013
:1002100028005C005D005E00390004001600070045
:1002200009000A000B000D000E000F00330034001F
:10023000310059005A005B005800E10064001D00C5
:100240001B000600190005001100100036003700E1
:100250003800E50062006300E000E300E2002C00EB
:10026000E600E7007600E400000000000100010065
:100270000100010001003A003B003C003D003E004F
:100280003F0040004100420043004400450001009F
:100290000100010001000100010001000100010056
:1002A0000100010001000100010001000100010046
:1002B0000100010001000100010001000100010036
:1002C0000100010001000100010001000100010026
:1002D0000100010001000100010001000100010016
:1002E0000100010001000100010001000100010006
:1002F00001000100010001000100010001000100F6
:1003000001000100010001000100000000000100E7
:1003100001000100010001000100010001000100D5
:1003200001000100010001000100010001000100C5
:1003300001000100010001000100010001000100B5
:1003400001000100010001000100010001000100A5
:100350000100010001000100010001000100010095
:100360000100010001000100010001000100010085
:100370000100010001000100010001000100010075
:100380000100010001000100010001000100010065
:100390000100010001000100010001000100010055
:1003A0000100010001000100010001000000000047
:1003B0000100010001000100010001000100010035
:1003C0000100010001000100010001000100010025
:1003D0000100010001000100010001000100010015
:1003E0000100010001000100010001000100010005
:1003F00001000100010001000100010001000100F5
:1004000001000100010001000100010001000100E4
:1004100001000100010001000100010001000100D4
:1004200001000100010001000100010001000100C4
:1004300001000100010001000100010001000100B4
:1004400001000100010001000100010001000000A5
:10045000000000000000000000000000000000009C
:100460000000000000007E0F00D4FFFFFFC7000067
:10047000007800000000000000002A2B2800000087
:100480000000000000000000000000000029000043
:1004900000002C1E3420212224342627252E362D20
:1004A0003738271E1F202122232425263333362EBA
:1004B00037381F0405060708090A0B0C0D0E0F102C
:1004C0001112131415161718191A1B1C1D2F313071
:1004D000232D350405060708090A0B0C0D0E0F1015
:1004E0001112131415161718191A1B1C1D2F313051
:1004F000354C09025B00030100A0FA090400000169
:1005000003010100092111010001224000070581BA
:100510000308000A09040100020300000009211178
:1005200001000122220007058203200001070503C4
:100530000320000109040200010300000009211149
:1005400001000122BC000705840320000A120110EB
:100550000100000008EDFE495301000102030104FF
:1005600003300000001C0353006F00750074006826
:100570000070006100770037003500490053004FDC
:10058000000000080371006D006B00000004030907
:10059000040011241FBECFEFDAE0DEBFCDBF04B6EA
:1005A00003FE27C08091820290918302A091840271
:1005B000B09185028730904BA740B04BD1F4109298
:1005C000820210928302109284021092850214BE5D
:1005D00084B7877F84BF0FB6F894A8958091600098
:1005E000886180936000109260000FBEE0E0F8E345
:1005F000099511E0A0E0B1E0E0E5FFE302C005905D
:100600000D92AE35B107D9F722E0AEE5B1E001C0F9
:100610001D92A238B207E1F70E949F1A0C946F1F37
:100620000C940000E8EDF0E080818E7F80831092D2
:10063000E2001092DA001092E100A0EEB0E08C919E
:1006400081608C9380818F77808319BCA7EDB0E0A7
:100650008C918E7F8C9380818F7E808310924F024D
:1006600008952091E4003091E50095E6A9012091DC
:10067000EC00822F817020FF06C08091E80080FF8F
:1006800006C080E008952091E80022FD1AC0809104
:100690007D02882389F0853089F08091EB0085FD0B
:1006A0000FC02091E4003091E50042175307F9F2A2
:1006B0009150E1F684E0089582E0089583E0089582
:1006C00081E00895EF92FF920F931F93CF937C01E7
:1006D0008B010E943103C82F811117C08091E8005F
:1006E00085FD0BC08091E8008E778093E8000E9422
:1006F0003103882399F3C82F08C0F70181917F0146
:100700008093F1000150110949F78C2FCF911F916F
:100710000F91FF90EF900895CF93FC0180917D029F
:10072000843001F5C091E900CF702091EC00922F48
:10073000917020FD90E8C92B82E08093E9008091C0
:10074000E80080FF0CC050E040E060E270E0CF01C4
:100750000E9462038091E8008E778093E800CF705A
:10076000C093E900CF9108958091750287FF13C06F
:100770008091E80082FF06C08091E8008B7780932B
:10078000E80004C080917D028111F2CF089580912C
:100790007D028823D9F38091E80080FFF8CF809113
:1007A000E8008E77ECCF982F9093E900242F762FD6
:1007B00050E0891731F07091EC002091ED005091DC
:1007C000F00021FD07C09F5F973071F78093E9002B
:1007D00081E008953091EB003E7F3093EB00309143
:1007E000ED003D7F3093ED003091EB0031603093B0
:1007F000EB007093EC002093ED005093F0002091FB
:10080000EE0027FDE0CF80E00895CF92DF92EF92D7
:10081000FF920F931F93CF93DF93C8EDD0E08881B1
:100820008F7E8883E7EDF0E080818160808384E0C3
:1008300082BF81E080934F0288818E7F888302EEA1
:1008400010E0F80110821092DA0081EEC82ED12C4F
:10085000F601108288818F778883888180688883F9
:1008600088818F7D888319BC10927D02109274025A
:10087000109273021092720290EEE92EF12CF701A1
:1008800080818B7F808388818160888342E060E003
:1008900080E00E94D303F60180818E7F8083F8017F
:1008A000808181608083808188608083F70180817E
:1008B0008E7F8083888180618883DF91CF911F91B3
:1008C0000F91FF90EF90DF90CF900895FC01809101
:1008D0007B0290917C0286179707A0F06115710545
:1008E00029F49091E8009E779093E80090E06115DC
:1008F000710551F4911108C08091E80082FF34C065
:1009000080E00895BC01F2CF80917D028823C1F17F
:100910008530C1F18091E80083FD30C08091E8000E
:1009200082FDEACF8091E80080FFE1CF8091F30063
:100930002091F200382F6115710519F0283031052A
:1009400058F091E02830310509F090E02091E8005E
:100950002E772093E800CBCF81918093F1006150F6
:1009600071092F5F3F4FE7CF80917D02882341F0CF
:10097000853041F08091E80083FFBECF81E008958B
:1009800082E0089583E00895809151020895909146
:100990002102803F59F48091220287FF0DC01092FE
:1009A000220291110BC010921C0208C0813F81F4F9
:1009B0008091220218169CF3992381F080912302E2
:1009C00090912402892B09F064C0109219020895B5
:1009D000823F49F497FFF0CF1092210280912202CA
:1009E0008111ECCFE0CF833F19F41916ACF3E4CFBB
:1009F00020912302893F29F41216F4F61092230263
:100A0000DBCF8A3F19F427FFD7CFF8CF20912402FC
:100A10008B3F29F427FFD0CF10922402CDCF8C3FFB
:100A200019F41216CCF3C8CF843F31F48091200220
:100A30008E7F80932002C0CF853F21F480912002D9
:100A40008D7FF7CF863F21F4809120028B7FF1CFFD
:100A5000873F21F480912002877FEBCF883F21F4EC
:100A6000809120028F7EE5CF8D3F31F4809101028D
:100A70008E7F80930102A0CF8E3F21F480910102EE
:100A80008D7FF7CF8F3F09F097CF809101028B7F49
:100A9000F0CF08958091010280FD16C081FD16C03F
:100AA00082FD16C0809119028823A1F0883280F45B
:100AB00028E0829FC001112468E270E00E94F81EC5
:100AC000862F672B39F0089582E0089584E0089519
:100AD00088E0089581E008958091010280FD14C0AE
:100AE00081FD14C082FD16C080911C02882381F014
:100AF000843180F422E3829FC001112464E170E01C
:100B00000E94F81E862F08958CE0089589E10895CB
:100B100085E0089582E30895803F31F40E946C05DA
:100B20008195809322020895813F19F40E946C05FB
:100B3000F8CF823F31F40E946C05819580932102A9
:100B40000895833F19F40E946C05F8CF893F29F47A
:100B50000E944A058093230208958A3F21F40E944F
:100B60004A058195F7CF8B3F31F40E944A05819564
:100B70008093240208958C3F19F40E944A05F8CF0F
:100B8000843F31F480912002816080932002089597
:100B9000853F21F4809120028260F7CF863F21F4C7
:100BA000809120028460F1CF873F21F48091200260
:100BB0008860EBCF883F21F4809120028061E5CFEF
:100BC0008D3F31F48091010281608093010208958C
:100BD0008E3F21F4809101028260F7CF8F3FB9F7F9
:100BE000809101028460F1CF87E797E79093010835
:100BF0008093000888E19AE00FB6F894A895809356
:100C000060000FBE90936000FFCF9C014FB7F89437
:100C100080914B0290914C02A0914D02B0914E02F6
:100C20004FBF821B930B08952FB7F89480914B020E
:100C300090914C02A0914D02B0914E022FBF0895A9
:100C40000E9414069C019091210280912202982B0F
:100C500021F030931E0220931D0290912302809177
:100C60002402982B21F030931B0220931A02E0916A
:100C70001602F0911702309749F082E080931F022C
:100C80000480F581E02D8FE192E009940895809130
:100C9000FC0181111092FC0108958091FB0190915B
:100CA000FA01892B9091F901892B80935E01909133
:100CB000FC019923A1F0892B80935E0180910A01A8
:100CC000882341F18091140287FF24C08EE1E0E681
:100CD000F1E090E0815000F591110E944706E0910B
:100CE0001602F09117023097E1F080910A018823F3
:100CF00059F08091140287FF07C080915E018093B4
:100D00005F0185E080935E010280F381E02D8EE536
:100D100091E0099486E0DBCF21912223D9F29F5FF5
:100D2000D9CF089590910A019923D1F0909114029E
:100D300097FF16C0E82FE695E695E695EE31E0F4CC
:100D4000F0E0E25AFE4F282F277081E090E001C0CA
:100D5000880F2A95EAF780959281892382830895E6
:100D6000E0E6F1E09191891303C0DF0111971C9235
:100D700091E0E636F907B1F7089590910A019923B9
:100D8000C1F09091140297FF14C0E82FE695E69504
:100D9000E695EE31F8F4F0E0E25AFE4F877021E07C
:100DA00030E001C0220F8A95EAF78281822B82838C
:100DB0000895A0E6B1E0EFEF90E02D91821751F099
:100DC000EF3F19F4211101C0E92F9F5F9630A9F779
:100DD000EF3F09F408950E2E000CFF0BE25AFE4F70
:100DE000E6CF29E0929F800D1124982F9770869569
:100DF0008695869525E0829FF0011124EF53FE4FE2
:100E000050E040E080E0219130E0092E02C03695AC
:100E100027950A94E2F721703327042E01C0220F90
:100E20000A94EAF7822B4F5F5F4F4530510559F71F
:100E3000089529E0929F800D1124982F977041E02A
:100E400001C0440F9A95EAF786958695869595E0B8
:100E5000899FF0011124EF53FE4F90E080E070E095
:100E60005191DF0111979B01082E02C036952795FD
:100E70000A94E2F7217021952527242325272C9316
:100E800001968530910561F708958091C001909198
:100E90008F01981301C008958F5F8770FACF882360
:100EA00041F080959091FB0189238093FB010C9484
:100EB0004D060895882339F09091FB01982B90936B
:100EC000FB010C944D060895209185013091860117
:100ED0002817390771F09093860180938501E0917E
:100EE0001602F0911702309721F00084F185E02D71
:100EF00009940895209183013091840128173907BE
:100F000071F09093840180938301E0911602F09137
:100F10001702309721F00680F781E02D099408959B
:100F20001092FA011092F9010E944D0686E0EFE15D
:100F3000F2E0DF011D928A95E9F710921C021092EF
:100F40001902109201020E94200690E080E00E94A7
:100F50007A0790E080E00C94640760937E027093BF
:100F60007F0280938002909381020C9490070F93EC
:100F70001F9360917E0270917F0280918002909118
:100F800081028B019C01067011272227332706302E
:100F900011052105310529F468601F910F910C940A
:100FA000AD07677FFACF0F931F9341E050E060E0F9
:100FB00070E004C0440F551F661F771F8A95D2F753
:100FC000CB01BA01609570958095909500917E0255
:100FD00010917F0220918002309181026023712361
:100FE000822393231F910F910C94AD079091F801E8
:100FF000809589238093F801282F277071F4282F7A
:10100000082E000C330B9217130639F08595859541
:1010100085950E94D3071092F80108950F931F93AE
:1010200041E050E060E070E004C0440F551F661FCF
:10103000771F8A95D2F780917E0290917F02A091CE
:101040008002B09181028A019B01082B192B2A2B67
:101050003B2BC901B8011F910F910C94AD07609310
:10106000FD017093FE018093FF01909300020C94A8
:101070009007E0911602F0911702309721F001904D
:10108000F081E02D099480E00895882309F459C087
:10109000823871F40E94390881FF53C089E30E94AD
:1010A000BD060E944D0689E30E9492060C944D06EF
:1010B000833859F40E94390880FF43C083E50E94B9
:1010C000BD060E944D0683E5EFCF843859F40E9497
:1010D000390882FF36C087E40E94BD060E944D0693
:1010E00087E4E2CF9CEF980F913AF0F290E2980FEC
:1010F000983088F4877021E030E0A90102C0440FE5
:10110000551F8A95E2F7CA0180959091FB018923CA
:101110008093FB01CBCF9BE5980F933020F490E0B8
:1011200080E00C947A0798E5980F973120F490E0CE
:1011300080E00C946407803F20F00E94C7040C9468
:10114000200608959091140292FF06C0282F28715E
:101150002830F9F4877F846093FF06C0282F287118
:101160002831F1F4877E84612091150220FF06C0AA
:10117000382F38713830D9F4877F816021FF06C05D
:10118000282F28712831D1F4877E816194FD877ED4
:101190000895282F24712430F9F68B7F8860DCCFE6
:1011A000282F2471243101F78B7E8861DDCF382F01
:1011B0003171313019F78E7F8860E0CF282F21718F
:1011C000213121F78E7E8861E1CFCF93DF9300D06C
:1011D0000F92CDB7DEB790917D02943011F58983DF
:1011E0007B836A839093E9008FEF9091E8008150B0
:1011F00095FD06C095ED9A95F1F700008111F5CFA8
:101200008091E80085FF0DC050E040E063E070E0B1
:10121000CE0101960E9462038091E8008E77809350
:10122000E8000F900F900F90DF91CF910895BC01CF
:1012300084E00C94E508BC0183E00C94E5089C0173
:1012400084E08093E9009FEF8091E800915085FD54
:1012500006C085ED8A95F1F700009111F5CF8091D8
:10126000E80085FF0CC050E040E066E070E0C90196
:101270000E9462038091E8008E778093E8000895D1
:10128000CF93DF93EC0180910A018823B1F1809123
:10129000140287FF32C060E284E08093E9008FEFA0
:1012A0009091E800815095FD06C095ED9A95F1F773
:1012B00000008111F5CF8091E80085FF1BC080916F
:1012C0000A0170E050E040E0811104C050E040E0CD
:1012D00068E070E0CE010E9462038091E8008E77A2
:1012E0008093E80080E2FE01A2E5B2E001900D9259
:1012F0008A95E1F7DF91CF91089568E081E0CDCF45
:10130000CF93C82F882309F4AEC08238C1F40E945D
:10131000390881FDA8C089E30E94BD060E944D06E0
:101320002FEF81EE94E0215080409040E1F700C023
:10133000000089E30E949206CF910C944D068338F9
:10134000A1F40E94390880FD8EC083E50E94BD068D
:101350000E944D062FEF81EE94E021508040904096
:10136000E1F700C0000083E5E5CF8438A1F40E94D6
:10137000390882FD78C087E40E94BD060E944D06B0
:101380002FEF81EE94E0215080409040E1F700C0C3
:10139000000087E4CFCF8CEF8C0F813A88F58091E5
:1013A0000A01882301F18091140287FF1CC0EC2FF1
:1013B000E695E695E695F0E0E25AFE4F828190E0F0
:1013C0004C2F477021E030E002C0220F331F4A95B6
:1013D000E2F782239323892B79F08C2F0E949206C7
:1013E0000E944D0609C0E0E6F1E08191C817A9F31B
:1013F00021E0E636F207C9F78C2F0E94BD069CCF8C
:1014000080E28C0F883068F4C77021E030E001C0C2
:10141000220FCA95EAF78091FB01822B8093FB0192
:101420008BCFEBE5EC0FE33040F4F0E0E55FFE4FEF
:10143000808190E0CF910C947A07E8E5EC0FE731DA
:1014400050F4F0E0EE0FFF1FE25FFE4F80819181CC
:10145000CF910C946407C03F30F08C2F0E948C0514
:10146000CF910C942006CF910895CF93C82F0E945E
:101470008009C93349F42FEF87EE93E02150804073
:101480009040E1F700C000008C2FCF910C944508EC
:101490000F931F93CF93DF93C42FD22FFC01828130
:1014A0008823A1F0409387010E9414069093820143
:1014B00080938101C77081E001C0880FCA95EAF767
:1014C000DF91CF911F910F910C945A0710918701D2
:1014D000141335C080918101909182010E9405060C
:1014E000883C910560F5C0E2CD0F1D17B9F080E290
:1014F000810F883040F4177081E001C0880F1A9581
:10150000EAF70E944F07C83048F481E09D2F97709A
:1015100001C0880F9A95EAF70E945A07802F0E940F
:10152000350AC83098F4D77081E001C0880FDA9589
:10153000EAF7DF91CF911F910F910C944F07C7707D
:1015400081E001C0880FCA95EAF7F3CFDF91CF9110
:101550001F910F9108956F927F929F92AF92BF92C9
:10156000CF92DF92EF92FF920F931F93CF93DF936F
:101570004CE351E002E012E03801C0E0EE24E394D5
:10158000F12CDA018D91AD01E82FE295EF70F0E0DA
:1015900091A18F70570101C0AA0C8A95EAF7892F93
:1015A0008A2981A382A19A2C9094892182A3B0EAEE
:1015B000BA95F1F785E4C82E81E0D82E30E020E01E
:1015C00090E080E0D601DD916D016D2F62956F7026
:1015D00070E0DB0190966C9170E0DF7002C0759551
:1015E0006795DA95E2F760FD49C0B701022E02C0A7
:1015F000660F771F0A94E2F7862B972B2F5F3F4FDA
:1016000029303105F9F621A1292121A322A1A22AFD
:10161000A2A2F301208131818217930791F1918376
:10162000808381E0C82BF2E06F0E711C81E04534AD
:10163000580709F0A6CFCC2331F181E080938001D7
:101640000E94140690937F0180937E0180917E0119
:1016500090917F010E9405060697C8F0E9E3F2E049
:1016600084E192E0D8012D913D918D012193319338
:101670008A179B07B9F71092800109C070E060E0FB
:10168000BBCF80E0CFCF809180018111DFCF8C2F45
:10169000DF91CF911F910F91FF90EF90DF90CF904E
:1016A000BF90AF909F907F906F900895CF9384E00C
:1016B00090E00E942D1FC82F81E290E00E942D1F14
:1016C000982F8C2FCF9108950F931F93CF93DF9373
:1016D000C42FD0E0CC0FDD1F22E1629FC00DD11DD1
:1016E000112432EA839FC00DD11D1124CE018696AC
:1016F0000E942D1F082F10E0102F0027CE01879683
:101700000E942D1F9801282BC901DF91CF911F91B5
:101710000F910895462F843038F4793028F46930D9
:1017200018F4672F0C94640B90E080E00895CF9339
:10173000DF930E948A0BEC0182389105A9F1D8F55C
:101740008133910509F496C048F58932910509F471
:101750008AC08A9709F495C0C11521E5D20708F01F
:10176000BCC0C11530E5D30708F014C1C83ED1058F
:1017700008F09CC0C03ED10560F5C83AD10508F01C
:1017800087C0C53AD10508F0FDC0C130D10509F1C7
:101790002097F9F0C430D105E0F440C085339105BD
:1017A00009F45AC0C997C1F680911402837089F078
:1017B000C0EED0E00EC0833E910599F170F4803EFA
:1017C000910501F1823E910539F68091140282FD66
:1017D00021C0CE01DF91CF910895863E910561F140
:1017E000873E910571F1843E910509F0B5CF809156
:1017F000150281FFEECF80911402C7EED0E084FD88
:101800000DC0E7CF8091140280FD12C190911502A6
:1018100090FFDFCFC3EED0E084FFDBCFD0E0C0E0AD
:10182000D8CF8091140282FD06C19091150290FDDF
:10183000BFCF84FFCECFF2CF8091140283FDDDCFE6
:10184000C8CF8091140283FDF9C09091150291FFD9
:10185000F0CFC4EED0E0BDCF8091140285FFB9CFA8
:10186000C9E2D0E0B6CF8091140285FFB2CFC5E3C4
:10187000D0E0AFCF8091140286FFABCFCAE2D0E0B8
:10188000A8CF8091140286FFA4CFC1E3D0E0A1CFFE
:10189000CF3BD10518F6C85AD0E0CC0FDD1FC25F90
:1018A000DE4F0990D881C02DD46493CFC11540E29A
:1018B000D40758F4C11581E0D80708F08ACFC03F9B
:1018C000D10508F4ABCFD06584CFC11590E4D9071A
:1018D00008F4A4CFDF70D06A7CCFC11525E5D2070C
:1018E00000F5C11534E5D30708F08AC0C11543E5FA
:1018F000D40708F071C0C11582E5D80708F467C0A5
:10190000CE018370992721E030E002C0220F331FFF
:101910008A95E2F7C695C69580E2C89FE00111243A
:1019200052C0C11599E5D907A8F4C11528E5D20719
:1019300008F06BC0C11536E5D30708F06FCF8C2FC8
:101940000E94A208C82FD0E0DC2FCC27CC27DF7163
:10195000D0623FCFC1154AE5D40708F45BC0CE0181
:1019600090568115904208F059CF8D2F8F710E94AB
:10197000A20890E0982F882788279F719C012C2B24
:10198000E901E6CFC55AD0E0C55FDE4FC881D0E09F
:10199000D0641FCFCE01E4E096958795EA95E1F7F4
:1019A00083702C2F26952695237040E2249F90016A
:1019B0001124382B8C2F8370C1E0D0E002C0CC0FF3
:1019C000DD1F8A95E2F7C22BD32BDC6802CFDC2F18
:1019D000CC27C16FD06AFDCECE018370992721E05C
:1019E00030E002C0220F331F8A95E2F7C695C695F4
:1019F00090E2C99FE0011124C22BD32BDA68E9CE13
:101A0000DC2FCC27C46FD06AE4CEDC2FCC27C06F8C
:101A1000D06ADFCE8C2F8F700E94A20834E0D6955A
:101A2000C7953A95E1F7CF709C2FEC01D069D1CEE4
:101A3000C9E3D0E0CECEC2EED0E0CBCEC6EED0E051
:101A4000C8CEBF92CF92DF92EF92FF920F931F9377
:101A5000CF93DF938C01C0907E02D0907F02E09004
:101A60008002F09081028091FD019091FE01A09191
:101A7000FF01B0910002C82AD92AEA2AFB2ACFE145
:101A8000D0E0BC2ED701C6010C2E04C0B695A79598
:101A9000979587950A94D2F780FD0EC0219788F715
:101AA000B12C8B2DDF91CF911F910F91FF90EF9073
:101AB000DF90CF90BF900895B8018C2F0E94970BB4
:101AC000019761F3EECFCF93DF93EC010E94210DDC
:101AD000BE01DF91CF910C94970B0E94630D292FCB
:101AE0002F7092959F7092509E3078F4E92FF0E01D
:101AF000EF58F04E0C940C1F803F19F020F4883EF4
:101B000020F481E00895843FE1F380E00895883E69
:101B1000C0F3813FD1F7F5CF822F869586958695C4
:101B200008956F927F928F929F92AF92BF92CF92C1
:101B3000DF92EF92FF920F931F93CF93DF938AEC84
:101B4000C82E81E0D82E9AEDE92EF12CE701C25A79
:101B5000D10936011BC0F50185909490692DC8010B
:101B60000E943B1F682DC80101960E943B1F82E026
:101B7000A80EB11C0E5F1F4FC017D10761F782E19D
:101B8000680E711C6296CE15DF0529F08E01025198
:101B900011095301E0CF7E0182EAE80EF11C82EACE
:101BA000C80ED11C82E6E81683E0F80679F6DF91CC
:101BB000CF911F910F91FF90EF90DF90CF90BF904A
:101BC000AF909F908F907F906F900895CF93DF9309
:101BD000CEEAD2E060E0CE010E943B1F2196C11503
:101BE00084E0D807B9F7DF91CF910895CF93C82F3C
:101BF0006FEF811160E282E290E00E943B1F6FEF85
:101C0000C11169E083E290E00E943B1F6FEFC111B8
:101C100067E284E290E0CF910C943B1F6CEE7EEF84
:101C200090E080E00E94591F60E082E090E00E9416
:101C30003B1F60E083E090E00E943B1F1092FD019B
:101C40001092FE011092FF011092000260E084E009
:101C500090E00E943B1F60E081E290E00E943B1F09
:101C600060E085E090E00E943B1F60E086E090E04D
:101C70000E943B1F6FEF87E090E00E943B1F40E017
:101C800050E0BA0188E090E00E944D1F60E08DE0D6
:101C900090E00E943B1F40E050E0BA0188E190E0F4
:101CA0000E944D1F60E087E190E00E943B1F40E0F2
:101CB00050E0BA018CE190E00E944D1F60E080E2AC
:101CC00090E00E943B1F40E050E0BA018FE090E0BE
:101CD0000E944D1F40E050E0BA0183E190E00C9477
:101CE0004D1F1092FB0180910A01E0E6F1E088238C
:101CF00059F08091140287FF07C08EE1DF011D9229
:101D00008A95E9F70C94900786E0F8CF1F93CF935C
:101D1000DF93CDB7DEB7AA970FB6F894DEBF0FBE3C
:101D2000CDBF85E792E02091F100DC012D93CD013C
:101D3000B2E08D379B07B9F780917602833009F4C2
:101D400071C0B8F4813009F448C0823009F4B2C0DF
:101D50008091E80083FF3AC18091750290917602EC
:101D60009A3008F033C1E92FF0E0E158F04E0C94BE
:101D70000C1F8A3009F48DC08B3009F470C0893093
:101D800039F780917502813219F78091790290912B
:101D90007A02009711F00297D9F68091E800877FC8
:101DA0008093E8008091E80082FF37C09091F300B3
:101DB0008091F200029729F48091F1008B7F8130AD
:101DC00021F48091F100809351028091E8008B779B
:101DD0008093E8000E94B403BBCF80917502813AE2
:101DE00009F0B6CF8091E800877F8093E80080916A
:101DF000790290917A02892B61F460E282E592E0A7
:101E000070E00E9466048091E8008B778093E80080
:101E10009FCF60E090E080E0F3CF80917D02811160
:101E2000C1CF96CF80917502813A09F091CF809110
:101E3000790290917A02892B09F08ACF8091E8008B
:101E4000877F8093E8008091E80080FFFCCF80913D
:101E50000A018093F1008091E8008E77B9CF8091DC
:101E60007502813209F074CF8091790290917A02E3
:101E7000892B09F06DCF8091E800877F8093E8007F
:101E80000E94B4038091770280930A010E94710E30
:101E90005FCF80917502813209F05ACF8091E800BE
:101EA000877F8093E8000E94B4038091780280933A
:101EB00050024ECF80917502813A09F049CF80914E
:101EC000E800877F8093E8008091E80080FFFCCFE6
:101ED00080915002BECF803899F0823809F076C0E8
:101EE000809179028F70873008F070C08093E9008C
:101EF0008091EB0085FB882780F91092E90006C0ED
:101F00008091720290917302911182609091E80029
:101F1000977F9093E8008093F1001092F1008091F8
:101F2000E8008E77C0C1882309F4ADC1823009F082
:101F30004DC0809177028111B1C1809179028F707B
:101F40002FEF280F263008F041C08093E900209140
:101F5000EB0020FFA3C1933031F48091EB0080624D
:101F60008093EB009BC19091EB0090619093EB000C
:101F700021E030E001C0220F8A95EAF72093EA00C1
:101F80001092EA008091EB008860EACF81111EC0B8
:101F9000109177021F778091E3008078812B8093E6
:101FA000E3008091E800877F8093E8000E94B403FB
:101FB0008091E80080FFFCCF8091E30080688093EF
:101FC000E30082E0111183E080937D028091E800BC
:101FD00083FF0AC08091E800877F8093E8008091AA
:101FE000EB0080628093EB00AA960FB6F894DEBFF8
:101FF0000FBECDBFDF91CF911F91089580588230E1
:1020000028F720917702309178022C3DE3E03E07DB
:10201000A1F583E08A838AE289834FB7F894DE01D1
:10202000139620E03EE051E2E32FF0E0509357009A
:10203000E49120FF03C0E295EF703F5FEF708E2FB9
:1020400090E0EA30C0F0C7968D939D932F5F2431C6
:1020500059F74FBF8091E800877F8093E8006AE2DC
:1020600070E0CE0101960E9466048091E8008B77B3
:102070008093E800ABCFC096E7CF80917902909132
:102080007A02432F55274330510509F44AC078F5A9
:102090004130510509F485C08BE590E0E2EFF4E0B2
:1020A0004230510509F092CF2091E800277F20931C
:1020B000E80020917B0230917C028217930708F49C
:1020C0009C0140E02115310509F070C041116EC03E
:1020D0008091E80082FDC9CF80917D02882329F29A
:1020E000853019F28091E80083FFF2CFBECF4132F4
:1020F000510509F447C04232510509F067CF8330DA
:10210000910508F063CFFC01EE0FFF1FEF5AFE4F61
:102110000190F081E02D825B9E4FDC018C9190E07C
:102120001DC0332721303105E9F02115310579F043
:1021300022303105F9F02330310509F047CFEFE5C2
:10214000F5E0E4918E2F90E0EFE5F5E007C0EDE8D3
:10215000F5E0E4918E2F90E0EDE8F5E0009709F4CA
:1021600035CFA2CFE3E8F5E0E4918E2F90E0E3E8ED
:10217000F5E0F4CFE5E6F5E0E4918E2F90E0E5E6BA
:10218000F5E0ECCF8330910508F020CF880F991F40
:10219000FC01E95AFE4F0190F081E02D89E090E0CA
:1021A00083CF82E190E0EDE4F5E07ECF80917D0287
:1021B000882309F45ACF853009F457CF8091E8007D
:1021C00083FD53CF8091E80082FD82CF8091E800AB
:1021D00080FF78CF9091F3008091F20021153105B6
:1021E00019F08830910550F041E0089709F040E07F
:1021F0008091E8008E778093E80064CF449140930B
:10220000F1003196215031090196E8CF803809F06C
:10221000DDCE8091E800877F8093E8008091740292
:102220008093F1007CCE8111D1CE109177021230D3
:1022300008F0CCCE8091E800877F8093E80010936F
:1022400074020E94B403112311F084E005C0809150
:10225000E30087FDFACF81E080937D0242E061ECEC
:1022600081E00E94D30342E261EC84E00E94D30348
:1022700042E261EC82E00E94D30342E260EC83E040
:102280000E94D303A3CE80917702813009F09ECEC5
:1022900081E0933009F080E0809373021092E900AE
:1022A0008091E800877F8093E8000E94B4038ECE7F
:1022B0004F925F926F927F928F929F92AF92BF9256
:1022C000CF92DF92EF92FF920F931F93CF93DF9302
:1022D00000D000D00F92CDB7DEB77C01FC01838126
:1022E0009481892B31F08081918189238F3F09F07E
:1022F00032C50F900F900F900F900F90DF91CF91FC
:102300001F910F91FF90EF90DF90CF90BF90AF9013
:102310009F908F907F906F905F904F9008950E9454
:10232000210D182F682F89819A810E9419076981D0
:102330007A81812F0E948A0B8C01F7018281882388
:1023400009F4FEC4980122513F452031310508F0BF
:10235000CEC48FEF93E00E942D1F02515EEAA52E9E
:1023600052E0B52E882379F18091F801877009F445
:10237000C0CFF7018281882309F4BBCF82E00F90A0
:102380000F900F900F900F90DF91CF911F910F91B1
:10239000FF90EF90DF90CF90BF90AF909F908F9085
:1023A0007F906F905F904F900C94F607A114F4E02B
:1023B000BF06D1F2C5010E942D1F811101C001503D
:1023C0002FEFA21AB20A0111F1CF1C821B826624E0
:1023D00063944AE0542E85010F5F1F4FC5010E9490
:1023E0002D1F89831A82882309F4BECF9FEF980F8F
:1023F000933008F58A83698232E0A30EB11CC801CC
:102400000E942D1F8B83882309F4AECF8E010F5FAE
:102410001F4FF80120812223F1F2213009F043C03F
:1024200091818281913049F40E5F1F4F0E94350ADD
:102430000F5F1F4FEECF5801E9CF923029F40E5FA6
:102440001F4F0E948009F4CF933029F40E5F1F4F75
:102450000E944508EDCF943019F00F5F1F4FE8CF71
:102460000E5F1F4F30E020E0B8016F5F7F4FF80133
:1024700041818053990B8A30910550F021503109E8
:10248000B8F28FE99FE00197F1F700C00000F6CFA6
:10249000529EF001539EF00D11249C012E0F3F1F00
:1024A000842F8B01E1CFE22FF0E0EE58FB4F7490C8
:1024B000822F86958695869590E0FC01EE59FB4F1C
:1024C00084902770912C022E02C0959487940A94D0
:1024D000E2F7E1E08E229924FC01EE5AFB4FC49012
:1024E000D12C02C0D594C7942A95E2F7F1E0CF220F
:1024F000DD248114910419F081EE0E948009C11439
:10250000D10419F086EE0E948009872D0E94350AB9
:10251000CD2819F086EE0E944508892809F488CF55
:1025200081EE96CF81E00E940E080E94B7071CCF73
:1025300081E00E94D307F9CF82E0F5CF053F2CE57B
:10254000120709F465C008F45DC0063F9CE5190751
:1025500009F464C0882309F40FC410928701023083
:10256000ECE51E0708F442C10631FCE51F0738F010
:1025700098012A5F3C452930310508F037C10E9497
:10258000560B909315028093140200312CE512072C
:1025900009F4FBC008F085C008308CE5180709F481
:1025A000E6C008F057C00430ECE51E0709F4D3C0BC
:1025B00008F040C002302CE5120709F4C6C0809133
:1025C0001402826003301C4509F4C2C060911402F9
:1025D0001091150284E090E00E943B1F612F81E280
:1025E00090E00E943B1F0E94710EBECE07E225EED6
:1025F00045EE68ED7CE5A0C306E221EE40EE63EF18
:102600007CE59AC307E225EE44EE64EF7CE594C3D3
:1026100006E221EE42EE65EF7CE58EC307E225EE91
:1026200046EE66EF7CE588C308E221E045EE69ED01
:102630007CE582C306308CE5180709F494C08091CC
:102640001402886007301C4508F482C0809114028F
:1026500080627EC0809114028D7F0C30ECE51E07F5
:1026600009F476C070F4809114028C600A302CE575
:10267000120709F46DC008F47EC0809114028E7FA9
:1026800067C00E308CE5180709F47BC080911402F6
:102690008B7F0F301C4508F45BC0809114028F7E45
:1026A00057C00B3FECE51E0709F459C030F5033164
:1026B0002CE5120709F471C078F401318CE5180794
:1026C00009F467C002311C4509F080CF0E94710EE9
:1026D000809114028F773CC00531ECE51E0709F4A8
:1026E00064C008F478C08091150281600A3F1C45DF
:1026F00009F06CCF8093150269CF0F3F3CE51307BB
:1027000009F44FC088F4809115028D7F0D3F9CE540
:10271000190781F3809115028E7F0E3F1C4550F3FF
:10272000809115028360E6CF0130FDE51F0709F4B3
:102730005BC008F446C060E002301D4509F046CF9A
:102740008EE090E00E943B1F41CF80911402816097
:10275000809314023BCF809114028460F9CF809162
:1027600015028260C7CF809114028061F1CF809101
:1027700014028064EDCF0E94710E80911402806873
:10278000E7CF80911402877FE3CF809114028F7D81
:10279000DFCF809114028F7BDBCF80911402837F87
:1027A000D7CF809115028C7FA5CF8091140282FB38
:1027B000992790F921E0922790FB82F990FB83F909
:1027C000C7CF80911502982F909591708E7F892B9D
:1027D00090FB81F98FCF0E94710E90911402892F86
:1027E00097FB87F98058B4CF61E0AACF06319CE50A
:1027F000190709F0CCC28091FB018A7A91E009F4B3
:1028000090E090938801811106C089E20E94BD0684
:102810000E944D06A9CD85E3F9CF85E3B5C20E949C
:10282000710EEFEFF4E32CE0E150F0402040E1F7CF
:1028300000C000000E94F4050E940E0E95CDC80154
:102840000E94F106D82EBAC2212F2F70A22E107F1F
:1028500019F0A29490EFA922DD20C9F0AA2069F016
:1028600080E2800F883010F081100BC08091FB0156
:10287000A82AA092FB010E944D06802F0E94800989
:1028800018C08091FA01A82AA092FA01F4CF802FF3
:102890000E944508AA2069F0A094005E083010F05C
:1028A00081103BC08091FB01A822A092FB010E94F5
:1028B0004D06EB2DE850FF0B349710F40E943908B9
:1028C000CC2009F416CD8091F80180FD12CDF701DE
:1028D00012828595859585950E940E08C7010E94F4
:1028E00058118091F8018595859585950F900F90E9
:1028F0000F900F900F90DF91CF911F910F91FF904C
:10290000EF90DF90CF90BF90AF909F908F907F908F
:102910006F905F904F900C94D3078091FA01A8229A
:10292000A092FA01C4CF312F3F70932E107F103246
:1029300019F0929480EF9822882071F081E0881637
:1029400061F1DD20B9F1AA2071F1F701858180FFE5
:1029500094CF8F70858327C0DD2091F09091FC018A
:10296000892D892BA11003C00E945A07A2CFE1E054
:10297000AE12FACF981709F49CCF8093FC0199CF3F
:10298000A11006C00E944706892D0E944F0791CFD3
:10299000F1E0AF1609F48DCFF5CFDD2031F025E061
:1029A0002A1508F486CF892DDFCF34E03A1508F4D4
:1029B00080CFEACFAA2041F3F9E38F1291C12FEF24
:1029C00037EE83E0215030408040E1F700C0000046
:1029D00087C1812F86958695837061F0813009F0DB
:1029E00068CFC8019370D11002C090E080E00E94CF
:1029F00064075FCFC8019370D11002C090E080E0FF
:102A00000E947A0756CF802FDD2029F00E948C0586
:102A10000E9420064ECF0E94C704FACF812F8370F8
:102A200009F066C0D11045CF802F829586958770BA
:102A3000880F880F602F6F70462E512C712C612CDF
:102A4000082E04C0440C551C661C771C0A94D2F74F
:102A500040E050E0BA0104FF0FC04FE050E060E0FA
:102A600070E004C0440F551F661F771F8A95D2F788
:102A70004095509560957095812F869586958370C9
:102A8000823019F1D8F40091FD011091FE012091DE
:102A9000FF0130910002813069F0442955296629EF
:102AA0007729CB01BA0160237123822393230E94EB
:102AB0002F08FFCE402A512A622A732ACB01BA017D
:102AC0006429752986299729F2CF44295529662931
:102AD00077290091FD011091FE012091FF013091B5
:102AE0000002CB01BA016027712782279327DFCF2D
:102AF0008695DD2011F0812F8170882309F4D9CECD
:102B0000802F829586958770880F880F602F6F7051
:102B1000462E512C712C612C082E04C0440C551CDF
:102B2000661C771C0A94D2F740E050E0BA0104FF1B
:102B30000FC04FE050E060E070E004C0440F551F4C
:102B4000661F771F8A95D2F74095509560957095CE
:102B5000812F869586958370823019F1D8F4009183
:102B60007E0210917F02209180023091810281309B
:102B700069F04429552966297729CB01BA016023D8
:102B80007123822393230E94AD0793CE402A512ABA
:102B9000622A732ACB01BA016429752986299729EB
:102BA000F2CF442955296629772900917E02109198
:102BB0007F022091800230918102CB01BA0160270F
:102BC000712782279327DFCF1F70DD2029F0812F07
:102BD0000E940E08802FC8CE802F0E944F07812FA1
:102BE0000E94D30766CE802F92EF891609F450C059
:102BF000981578F0E0EF8E1619F1F1EF8F1609F4C1
:102C00003FC0DD2009F467C0A11037CE812F8F713E
:102C10003CC023EF821609F440C034EF8312F1CF99
:102C2000DD2009F44DC01F71812F0E940E08E8E0DD
:102C30001E9FC001112483608093F801812F25C05D
:102C4000DD20C9F084E08A1508F433CE1F7161E0FD
:102C500070E080E090E004C0660F771F881F991F26
:102C60001A95D2F700917E0210917F022091800286
:102C700030918102A4CF95E09A1508F41ACEE6CFE0
:102C8000812F8F71DD2009F4ABCF0E940E0811CE89
:102C9000812F8F71DD20C9F3A3CF60E070E0CB01FD
:102CA000DD2009F470CF1F7161E070E080E090E0FA
:102CB00004C0660F771F881F991F1A95D2F763CF3C
:102CC00081E00E94F607F1E0FA1508F0F2CD82E00B
:102CD0000E94F607EECDAA2039F0893309F46FCEB1
:102CE000802F0E944508E5CD812F8F7179CF00316B
:102CF000FFE51F0709F416CC01312FE5120709F48F
:102D00001BCC033F2CE5120709F476CC08F016CC57
:102D1000083D9CE5190709F469CC093DECE51E075F
:102D200009F482CC073DFCE51F0709F013CC06E24D
:102D300021EE41EE67ED7CE5C7010E94480A14CB05
:102D400000313FE5130709F4F3CB01319FE5190783
:102D5000C1F682E0EECB85E0DE01119601900D9286
:102D60008A95E1F7F701228189819A812111D7CAD9
:102D70000E94F106182FDBCA06311C4589F48091A8
:102D8000880181114ACD89E20E94920641CD011548
:102D90002CE5120709F443CD0E3D1C4509F44CCD3A
:102DA000F70100811181882309F449CDC8010E94EF
:102DB000210DD82E682FC8010E941907B8018D2D4A
:102DC0000E94970B8C01882EF701A580A2943FE00A
:102DD000A322D280D1101092FA018091F80187705D
:102DE00099F0DD2089F0812F807F803421F080E20E
:102DF000800F883048F082E00E94F6078091F80149
:102E00008770CC24C3948111C12CB12EB2942FE0D1
:102E1000B222FBE0FB1508F44CCDEB2DF0E0E757B8
:102E2000F04E0C940C1F1F93CF93DF9380918E0173
:102E3000807FA9F480918B01882389F08091C00163
:102E4000D0918F016091890170918A01A0918C01CC
:102E5000B0918D01C62FC72316E0D81304C0DF91AF
:102E6000CF911F91089590E0109711F0CF3F19F482
:102E700001968770F2CF189F9001199F300D112491
:102E8000F901E057FE4F41814713F2CF40814613CD
:102E9000EFCF42814111ECCF438154814A1B5B0B40
:102EA000483C510528F780918E018F708061809396
:102EB0008E01F901EB56FE4F80818F708061808317
:102EC00089E891E00E945811DF91CF911F910C94F5
:102ED0004507AF92BF92CF92DF92EF92FF920F938E
:102EE0001F93CF93DF93CDB7DEB761970FB6F894FA
:102EF000DEBF0FBECDBF8C0185E0F801DE011D965F
:102F000001900D928A95E1F7F80180819181E2802C
:102F100029E8A22E21E0B22E60918C0170918D01E2
:102F20006115710509F43EC13091890140918A0112
:102F3000232F24232F3F09F435C1C380D480F09080
:102F40008B01F601E61BF70BFF2009F4FBC0209173
:102F50008E01522F507FE83CF10508F0BBC05111A3
:102F600078C0FE2C491321C038131FC0E1101DC0CA
:102F70002F70206120938E01C5010E94581180910D
:102F80008E01F80185838F2D61960FB6F894DEBF10
:102F90000FBECDBFDF91CF911F910F91FF90EF90AA
:102FA000DF90CF90BF90AF900895CD2829F0282FC3
:102FB00029232F3F09F014C120E0F22FF170DF2EFA
:102FC00020FF3DC02091C00140918F0156E02413A5
:102FD00015C08D879E878D859E850E94630D292F44
:102FE00022952F702230F8F0243020F59F70F9F0F0
:102FF000F8019581907FD9F4D12C1FC030E0529F09
:10300000F001539FF00D1124E057FE4F618196139C
:1030100006C06081861303C06281E61210C02F5F74
:103020003F4F2770D4CF9F7011F0882329F3805E23
:10303000883010F3C8010E945811FD2CA4CFEE2057
:1030400009F4A1CF80918E01816080938E01F12CD3
:103050009ACF491312C0381310C0E1100EC0F80106
:103060002583C8010E94581186E0F801A9E8B1E063
:1030700001900D928A95E1F786CF8D879E878D8589
:103080009E850E946D0D882309F1EE20F9F0809154
:103090008E01803270F02091890130918A01388749
:1030A0002F831986DB86CA868C87CE0107960E94FD
:1030B000581186E0F801A9E8B1E001900D928A95D7
:1030C000E1F70E941317FF24F3945DCFC8010E941B
:1030D0005811F9CF51110AC089E891E00E945811A6
:1030E00086E0F50111928A95E9F7B1CF49130FC037
:1030F00038130DC0E1100BC0F8012583C8010E94F0
:10310000581186E0F50111928A95E9F73CCF8D8739
:103110009E878D859E850E946D0D8823B9F2EE20D5
:10312000A9F280918E01803220F2209189013091A4
:103130008A013A8329831B82DD82CC828E83CE0171
:103140000196B5CFE83CF105E0F6FE2CEE2009F43F
:10315000BDCF491316C0381314C080918E0180FD75
:1031600083CF982F907F09F47FCFF8018583903F1C
:1031700009F477CF982F907F905F8F70892B85838C
:1031800070CF8D879E878D859E850E946D0D8111E4
:1031900090CF80918E01816080938E01C8010E9442
:1031A0005811F1CEEE2009F491CF8D879E878D8541
:1031B0009E850E946D0DF82E882309F487CF86E046
:1031C000F801A9E8B1E001900D928A95E1F78091AC
:1031D000890190918A010E94630D0E941317D3CE3A
:1031E00021E02E25EACE1F93CF93DF93CDB7DEB734
:1031F00067970FB6F894DEBF0FBECDBF4B8B5C8BCD
:103200006D8B7E8B8F8B1A8A198A85E0FE017396EF
:10321000DE011D9601900D928A95E1F786E0FE0190
:103220003D96DE01179601900D928A95E1F7CE0149
:1032300007960E946917882389F016E08091C001E3
:1032400090918F01891349C067960FB6F894DEBF3D
:103250000FBECDBFDF91CF911F91089586E0FE0193
:103260003796DE01119601900D928A95E1F78A85D5
:103270009B85892B11F38F81988589238F3FE9F2F4
:1032800020918F0130E0C901019687709927409104
:10329000C0014817190671F40E94710E10928F0137
:1032A0001092C00186E0E9E8F1E0DF011D928A9505
:1032B000E9F7C3CF96E0929FD001939FB00D112400
:1032C000A057BE4FFE01319601900D929A95E1F7FD
:1032D00080938F010E944507B0CF819FC0011124C8
:1032E00080579E4F0E946917882309F4ADCF8091C3
:1032F000C00190E00196877099278093C0019ECF0E
:103300001F920F920FB60F9211242F933F934F935A
:103310005F936F937F938F939F93AF93BF93CF935D
:10332000DF93EF93FF93D091E900DF708091EC0081
:10333000C82FC17080FDC0E81092E9008091F000B4
:10334000877F8093F00078940E94860E1092E900A7
:103350008091F00088608093F000CD2BCF70C093F7
:10336000E900FF91EF91DF91CF91BF91AF919F91D4
:103370008F917F916F915F914F913F912F910F901E
:103380000FBE0F901F9018951F920F920FB60F92BD
:1033900011242F933F934F935F936F937F938F935A
:1033A0009F93AF93BF93EF93FF938091E10082FFD0
:1033B00009C08091E20082FF05C08091E1008B7F0F
:1033C0008093E1008091DA0080FF24C08091D800D2
:1033D00080FF20C08091DA008E7F8093DA00809198
:1033E000D90080FF9FC080E189BD82E189BD09B419
:1033F00000FEFDCF81E080937D0280914F0281111C
:1034000009C00E9412030E9405048091E2008460BA
:103410008093E2008091E10080FF17C08091E2007C
:1034200080FF13C08091E2008E7F8093E200809144
:10343000E20080618093E2008091D80080628093F6
:10344000D80019BC85E080937D028091E10084FF63
:103450002DC08091E20084FF29C080E189BD82E116
:1034600089BD89B5982F917080FFFBCF8091D800DE
:103470008F7D8093D8008091E1008F7E8093E10062
:103480008091E2008F7E8093E2008091E200816073
:103490008093E20080917402882309F449C084E09B
:1034A00080937D020E94710E0E9439088091E10094
:1034B00083FF27C08091E20083FF23C08091E10059
:1034C000877F8093E10082E080937D0210927402F6
:1034D0008091E1008E7F8093E1008091E2008E7FF9
:1034E0008093E2008091E20080618093E20042E0FC
:1034F00060E080E00E94D3038091F00088608093B8
:10350000F000FF91EF91BF91AF919F918F917F91CB
:103510006F915F914F913F912F910F900FBE0F9040
:103520001F90189519BC10927D0210924F0272CF15
:103530008091E30087FD93E090937D02B3CFCDB7F8
:10354000DEB7AA970FB6F894DEBF0FBECDBF84B723
:10355000877F84BF0FB6F894A8958091600088613A
:1035600080936000109260000FBE80E890E00FB67C
:10357000F89480936100909361000FBE85B78068D6
:1035800085BF85B7806885BF0E9412030E9405042D
:103590008091E20084608093E200789480917D02C3
:1035A0008823A1F01091E9001F709091EC00892F01
:1035B000817090FD80E8182B1092E9008091E8005E
:1035C00083FD0E94860E1F701093E90082E084BD87
:1035D00093E095BD9AEF97BD80936E00ACE3B1E0A8
:1035E00061E070E08D91E82FE295EF70F0E041A18D
:1035F0008F709B0101C0220F8A95EAF7922F909558
:10360000942391A382A1822B82A321E0A534B20747
:1036100049F7A5E4B1E04EE451E061E070E08D913E
:10362000E82FE295EF70F0E011A18F709B0101C0CF
:10363000220F8A95EAF7922F9095912391A382A168
:10364000822B82A34A175B0751F7E2E0F2E084E1A4
:1036500092E0A9E3B2E0119211921D921D928E1791
:103660009F07C9F70E94AB0A8FE39CE90197F1F726
:1036700000C000000E94AB0A8091390280FF0BC09D
:1036800080E00E94F60D6FEF7FEF90E080E00E94F7
:10369000591F0E94F40590E080E00E94351F8C3E87
:1036A0009E4F11F00E940E0E82E290E00E942D1FAC
:1036B000803209F032C383E290E00E942D1F8930EE
:1036C00009F02BC384E290E00E942D1F873209F09D
:1036D00024C390E080E00E94351F8C3E9E4F11F085
:1036E0000E940E0E82E090E00E942D1F8093260221
:1036F0000E94560B909315028093140283E090E091
:103700000E942D1F682F70E090E080E00E942F083B
:1037100080E091E09093170280931602EE24EA94E1
:10372000FF24F39452E5252E60E1662E72EA372ECF
:10373000E2E17E2EF9E04F2EA8E18A2E912CB0E432
:103740005B2E80917D02853009F43FC10E94AB0A57
:10375000E7E2F2E0A9E3B2E010E000E0602F8D9133
:103760009D91219131912817390709F46CC12827BF
:10377000392770E0CC24C394D12CA9014C215D21C0
:10378000452B09F45AC179A36AA39C012C213D2140
:1037900091E0232B09F490E09BA30E941406816022
:1037A000782F9DA38CA349A15AA16BA18DA10E9442
:1037B000F318000F111FF801E95DFD4F8081918121
:1037C000C826D926D182C08286E0EFE1F2E0DE0190
:1037D000119601900D928A95E1F7D0902102C09048
:1037E00022021091230200912402109221021092D1
:1037F000220210922302109224028D2D8C2909F4AA
:1038000048C080911D0290911E020E9405069C01F5
:1038100090911C02992309F49BC223333105C8F10E
:103820009F3F19F09F5F90931C02DD2059F00E948A
:103830006C059FEF1D140CF491E0899F802D1124DD
:1038400080932102CC2059F00E946C059FEF1C143C
:103850000CF491E0899F802D1124809322023091F5
:1038600021023323B1F020912202222391F045EB73
:103870003403C0011124992309F4FBC09093210261
:1038800045EB240390011124332309F4F5C0309350
:103890002202812F802B09F448C080911A02909156
:1038A0001B020E9405069C0190911902992309F4BC
:1038B0004AC225363105C8F19F3F19F09F5F9093AA
:1038C0001902112359F00E944A059FEF11160CF4BA
:1038D00091E0899F802D112480932302002359F0C9
:1038E0000E944A059FEF10160CF491E0899F802DED
:1038F000112480932402309123023323B1F02091CC
:103900002402222391F045EB3403C00111249923B2
:1039100009F4B5C09093230245EB240390011124D0
:10392000332309F4AFC03093240280912102909197
:103930002202892B90912302892B90912402892BBA
:1039400011F00E94200686E0FE013196AFE1B2E060
:1039500001900D928A95E1F70E9439089091250215
:10396000891721F00E9439088093250280917D02F9
:10397000843009F0E6CE83E08093E9008091E8008E
:1039800082FFDFCE8091E80090E085FF0CC00E94AE
:10399000310330E2C32ED12C8E010F5F1F4F8823DD
:1039A00009F47DC091E08091E8008B778093E80076
:1039B000992309F4C6CEE981E150E33108F0BFC094
:1039C000F0E0EB56F04E0C940C1F80917D02843099
:1039D00009F1109218020FB6F894A8958092600031
:1039E0000FBE5092600083B7817F846083BF83B72E
:1039F000816083BF7894889583B78E7F83BF0FB62D
:103A0000F894A8958091600088618093600010927E
:103A100060000FBE80917302882309F492CE0E9449
:103A2000AB0AE9E3F2E081919191892B09F061C140
:103A300022E0EB34F207B9F784CE7F5FCC0CDD1CBB
:103A4000793009F09ACE0F5F1F4F0930110509F048
:103A500085CEEEA2EFA218A60E9414068160782FF0
:103A60009AA789A74EA15FA168A58AA50E94F3180D
:103A7000ABCEF092210204CFF09222020ACFF09254
:103A800023024ACFF092240250CF8091F100F80136
:103A900081938F01F1E0CF1AD10809F483CF80918F
:103AA000E80085FDF2CF8091E8008B778093E800F5
:103AB0000E943103882399F375CF1A824B82CE017D
:103AC00001960E948C033DCE8A81823009F432C176
:103AD0008330A1F0813099F52FB7F89460914B02B3
:103AE00070914C0280914D0290914E022FBF0E9426
:103AF000121F6B837C838D839E83E1CFDE01119641
:103B0000E9E3F2E080819181329612969C931297BC
:103B100013968C931397129622E0EB34F20791F7E9
:103B2000CECF8A81823059F46B817C818D819E81D8
:103B30000E94121F85E290E00E943B1FC0CFE982E5
:103B4000BECF4C816B818A810E94640B98278927A4
:103B500098279E838D83B3CF0D811E811027012767
:103B600010278A81CB80C79C60011124839DC00CE3
:103B7000D11C11248C8190E0880F991FC80ED91E8A
:103B8000612FC60186960E943B1F602FC601879653
:103B9000D3CF0E94910D93CF6A8291CFFA822B826C
:103BA0008ECF0A811B81102701271027CE01019695
:103BB0006C01AC80FC01EA0DF11D5F01C80182556A
:103BC0009D4FAC14BD0409F47ACF0235F1E01F0714
:103BD00050F40E942D1FF60184830F5F1F4FFFEFEB
:103BE000CF1ADF0AEBCFF6011482F7CF0A811B81CF
:103BF000102701271027CE0101965C01CC80C00E52
:103C0000D12ED11CC80182559D4FC016D10609F492
:103C100056CF0235E1E01E0720F4F50164810E94D1
:103C20003B1FFFEFAF1ABF0A0F5F1F4FEBCF0E9482
:103C3000E60D45CF24E02A8342CF0A811B8110275D
:103C400001271027CE0101966C01AC80FC01EA0D22
:103C5000F11D5F01C8018696AC14BD0409F42FCF95
:103C60000838F2E01F0750F40E942D1FF6018483EC
:103C70000F5F1F4FFFEFCF1ADF0AECCFF601148260
:103C8000F7CF0A811B81102701271027CE0101964B
:103C90005C01CC80C00ED12ED11CC80186960C15BB
:103CA0001D0509F40CCF0838E2E01E0720F4F501E9
:103CB00064810E943B1FFFEFAF1ABF0A0F5F1F4FC7
:103CC000ECCF80E00E94F60D6FEF7FEF90E080E098
:103CD0000E94591FF4CECE0101960E948C032FEF53
:103CE00041EE84E0215040408040E1F700C00000F8
:103CF000D0CC69BC79BC09B400FEFDCF8091D8005E
:103D00008F7D8093D8008091E00082608093E000F6
:103D10008091E00081FDFCCF14CD60E085E290E071
:103D20000E943B1F0E94910D0E94E60D81E00E94BF
:103D3000F60DCFCC85E290E00E942D1F1B821C82E5
:103D40001D828E83BCCE2D32314008F0B7CDEDCD33
:103D50002D32314008F066CD9CCD78941F921FB66D
:103D60001F9211248F939F93AF93BF9380914B0227
:103D700090914C02A0914D02B0914E020196A11D6E
:103D8000B11D80934B0290934C02A0934D02B093CF
:103D90004E02BF91AF919F918F911F901FBE1F90B8
:103DA00018951F921FB61F9211248F939F93AF9364
:103DB000BF9380911802811113C080914B029091A2
:103DC0004C02A0914D02B0914E024196A11DB11D31
:103DD00080934B0290934C02A0934D02B0934E02FD
:103DE000BF91AF919F918F911F901FBE1F9018950B
:103DF00097FB072E16F4009407D077FD09D00E9498
:103E0000191F07FC05D03EF4909581959F4F0895AA
:103E1000709561957F4F0895EE0FFF1F0590F49107
:103E2000E02D09946927962769277827872778271F
:103E30000895AA1BBB1B51E107C0AA1FBB1FA617F1
:103E4000B70710F0A61BB70B881F991F5A95A9F743
:103E500080959095BC01CD010895F999FECF92BD52
:103E600081BDF89A992780B50895A8E1B0E042E0B5
:103E700050E00C94611F262FF999FECF92BD81BDB1
:103E8000F89A019700B4021639F01FBA20BD0FB698
:103E9000F894FA9AF99A0FBE08950396272F0E9474
:103EA0003C1F0E943B1F252F0E943C1F242F0C9477
:103EB0003C1F0196272F0E943C1F0C943B1FDC01E6
:103EC000CB01FC01F999FECF06C0F2BDE1BDF89A25
:103ED000319600B40D9241505040B8F70895F894CF
:103EE000FFCF7C0D7C0D850D850D870D850D850D16
:103EF000850D7C0D7C0D8C0D850D850D8C0D6B0F4E
:103F0000930FE60F930FE60FC60FFE0FE60F061195
:103F100013112414241493149314E914031559143D
:103F200059140E15E415F315F3155D1D641D911D4F
:103F3000A11DAC1DC91D9F1D9F1D9F1D611E6B1ED8
:103F4000CC1DCE1DD11DF61D171E1A1E1D1E411E95
:103F5000C40440091F091B09170901818283E2007B
:103F6000E900EA00B500B600B700CD008301CC003F
:103F70008A019201940121022302240225022602D1
:103F800027022A02B300B4006F0070009392919050
:103F9000946697C63435F4F5F6F73133323640225D
:0E3FA000BC8A016801AC0004051D053D05004A
:00000001FF
